S00C00004C4D33352E7372656317
S11300000C942A000C9447000C9447000C9447006D
S11300100C9447000C9447000C9447000C94470040
S11300200C9447000C9447000C9447000C94470030
S11300300C9447000C9447000C9447000C94470020
S11300400C9447000C9447000C9447000C94470010
S11300500C94470011241FBECFE5D8E0DEBFCDBF0E
S113006010E0A0E6B0E0E2E6FDE002C005900D92EB
S1130070A037B107D9F720E0A0E7B0E001C01D9296
S1130080AA37B207E1F70E9483050C94AF060C94DB
S11300900000672B09F09FC0009711F4D8980895C9
S11300A08130910511F4D99808958230910511F4A5
S11300B0DA9808958330910511F4DB98089584301B
S11300C0910511F4DC9808958530910511F4DD98BB
S11300D008958630910511F4DE98089587309105CE
S11300E011F4DF9808958A30910511F4C0980895A9
S11300F08B30910511F4C19808958C30910511F459
S1130100C29808958D30910511F4C39808958E30E6
S1130110910511F4C49808958F30910511F4C59890
S113012008958031910511F4C6980895813191059F
S113013011F4C79808958431910511F4A89808958D
S11301408531910511F4A99808958631910511F42A
S1130150AA9808958731910511F4AB9808958831D0
S1130160910511F4AC9808958931910511F4AD9875
S113017008958A31910511F4AE9808958B31910553
S113018011F4AF9808958E31910511F49098089563
S11301908F31910511F4919808958032910511F4ED
S11301A0929808958132910511F4939808958232BA
S11301B0910511F4949808958332910511F495985A
S11301C008958432910511F496980895859709F05D
S11301D09FC097980895009711F4D89A0895813094
S11301E0910511F4D99A08958230910511F4DA9A9F
S11301F008958330910511F4DB9A089584309105B4
S113020011F4DC9A08958530910511F4DD9A08956E
S11302108630910511F4DE9A08958730910511F422
S1130220DF9A08958A30910511F4C09A08958B30AD
S1130230910511F4C19A08958C30910511F4C29A74
S113024008958D30910511F4C39A08958E30910567
S113025011F4C49A08958F30910511F4C59A089544
S11302608031910511F4C69A08958131910511F4F4
S1130270C79A08958431910511F4A89A0895853197
S1130280910511F4A99A08958631910511F4AA9A59
S113029008958731910511F4AB9A08958831910539
S11302A011F4AC9A08958931910511F4AD9A089529
S11302B08A31910511F4AE9A08958B31910511F4A8
S11302C0AF9A08958E31910511F4909A08958F3163
S11302D0910511F4919A08958032910511F4929A3E
S11302E008958132910511F4939A0895823291050B
S11302F011F4949A08958332910511F4959A08950E
S11303008432910511F4969A0895859709F4979A81
S113031008956115710509F09FC0009711F4D09AF2
S113032008958130910511F4D19A08958230910590
S113033011F4D29A08958330910511F4D39A089553
S11303408430910511F4D49A08958530910511F4FF
S1130350D59A08958630910511F4D69A0895873078
S1130360910511F4D79A08958A30910511F4B89A39
S113037008958B30910511F4B99A08958C30910544
S113038011F4BA9A08958D30910511F4BB9A089529
S11303908E30910511F4BC9A08958F30910511F4B3
S11303A0BD9A08958031910511F4BE9A0895813162
S11303B0910511F4BF9A08958431910511F4A09A1E
S11303C008958531910511F4A19A08958631910516
S11303D011F4A29A08958731910511F4A39A08950E
S11303E08831910511F4A49A08958931910511F485
S11303F0A59A08958A31910511F4A69A08958B312E
S1130400910511F4A79A08958E31910511F4889AF3
S113041008958F31910511F4899A089580329105D8
S113042011F48A9A08958132910511F48B9A0895F2
S11304308232910511F48C9A08958332910511F456
S11304408D9A08958432910511F48E9A08958597B2
S113045009F0A3C08F9A08956130710509F09DC019
S1130460009711F4D09808958130910511F4D19832
S113047008958230910511F4D2980895833091053E
S113048011F4D39808958430910511F4D498089503
S11304908530910511F4D59808958630910511F4AD
S11304A0D69808958730910511F4D79808958A3025
S11304B0910511F4B89808958B30910511F4B99809
S11304C008958C30910511F4BA9808958D309105F2
S11304D011F4BB9808958E30910511F4BC980895D9
S11304E08F30910511F4BD9808958031910511F470
S11304F0BE9808958131910511F4BF98089584310F
S1130500910511F4A09808958531910511F4A198ED
S113051008958631910511F4A298089587319105C3
S113052011F4A39808958831910511F4A4980895BD
S11305308931910511F4A59808958A31910511F432
S1130540A69808958B31910511F4A79808958E31DA
S1130550910511F4889808958F31910511F48998C3
S113056008958032910511F48A9808958132910595
S113057011F48B9808958232910511F48C980895A2
S11305808332910511F48D9808958432910511F404
S11305908E980895859709F48F980895009721F40B
S11305A089B3817090E008958130910529F489B36D
S11305B08695817090E008958230910531F489B375
S11305C082FB882780F990E008958330910531F407
S11305D089B383FB882780F990E0089584309105DE
S11305E029F489B38295817090E00895853091054E
S11305F031F489B385FB882780F990E0089586302B
S1130600910531F489B386FB882780F990E0089539
S11306108730910551F489B3082E000C990B892F6A
S1130620881F8827881F90E008958A30910521F457
S113063086B3817090E008958B30910529F486B3D8
S11306408695817090E008958C30910531F486B3DD
S113065082FB882780F990E008958D30910531F46C
S113066086B383FB882780F990E008958E30910546
S113067029F486B38295817090E008958F309105B6
S113068031F486B385FB882780F990E008958031A2
S1130690910531F486B386FB882780F990E00895AC
S11306A08131910551F486B3082E000C990B892FE2
S11306B0881F8827881F90E008958431910521F4CC
S11306C083B3817090E008958531910529F483B353
S11306D08695817090E008958631910531F483B355
S11306E082FB882780F990E008958731910531F4E1
S11306F083B383FB882780F990E0089588319105BE
S113070029F483B38295817090E00895893191052D
S113071031F483B385FB882780F990E008958A310A
S1130720910531F483B386FB882780F990E008951E
S11307308B31910551F483B3082E000C990B892F4A
S1130740881F8827881F90E008958E31910521F431
S113075080B3817090E008958F31910529F480B3BE
S11307608695817090E008958032910531F480B3CC
S113077082FB882780F990E008958132910531F455
S113078080B383FB882780F990E008958232910535
S113079029F480B38295817090E0089583329105A5
S11307A031F480B385FB882780F990E00895843282
S11307B0910531F480B386FB882780F990E0089591
S11307C0859751F480B3082E000C990B892F881F4C
S11307D08827881F90E0089580E090E00895CF93E3
S11307E0C82F80FF07C061E070E082E290E00E94C1
S11307F0490006C060E070E082E290E00E94490097
S1130800C1FF07C061E070E083E290E00E9449000C
S113081006C060E070E083E290E00E944900C2FFFD
S113082007C061E070E084E290E00E94490006C0E5
S113083060E070E084E290E00E944900C3FF07C0DA
S113084061E070E085E290E00E94490006C060E04B
S113085070E085E290E00E944900CF910895CF9323
S1130860C82F60E070E08AE190E00E9449008C2F7C
S11308700E94EF0361E070E08BE190E00E94490088
S113088089EF90E00197F1F700C0000060E070E0AC
S11308908BE190E00E94490089EF90E00197F1F725
S11308A000C00000CF91089580E00E942F0481E0F1
S11308B00E942F040895CF93C62F813059F480E805
S11308C0860F82958F700E942F048C2F8F700E9448
S11308D02F040CC0823051F480EC860F82958F7007
S11308E00E942F048C2F8F700E942F04CF910895A3
S11308F080E00E94EF0387E893E10197F1F700C0DD
S1130900000083E00E942F0481EE94E00197F1F748
S113091000C0000083E00E942F048DEB9AE0019751
S1130920F1F700C0000083E00E942F0482E00E94DF
S11309302F0482E00E942F0488E00E942F0480E0AC
S11309400E942F048CE00E942F0480E00E942F0458
S113095086E00E942F040895CF93C82F61E070E0D1
S11309608AE190E00E9449008C2F82958F700E944A
S1130970EF0361E070E08BE190E00E94490089EFB1
S113098090E00197F1F700C0000060E070E08BE1B7
S113099090E00E94490089EF90E00197F1F700C0D0
S11309A000008C2F8F700E94EF0361E070E08BE1F8
S11309B090E00E94490089EF90E00197F1F700C0B0
S11309C0000060E070E08BE190E00E94490089EF54
S11309D090E00197F1F700C00000CF910895CF9304
S11309E0DF93EC018881882331F021960E94AC04C6
S11309F089918111FBCFDF91CF910895CF92DF923E
S1130A00EF92FF920F931F93CF93DF936C017B01BF
S1130A108A01E90161E081E00E945B0484E690E0E0
S1130A200E94EF0466E081E00E945B044AE066E70E
S1130A3070E0C6010E947A0686E790E00E94EF0407
S1130A4061E082E00E945B048AE690E00E94EF0489
S1130A5066E082E00E945B044AE066E770E0C7015A
S1130A600E947A0686E790E00E94EF046CE081E041
S1130A700E945B044AE066E770E0C8010E947A06BF
S1130A8086E790E00E94EF046CE082E00E945B0441
S1130A904AE066E770E0CE010E947A0686E790E0BD
S1130AA00E94EF04DF91CF911F910F91FF90EF907F
S1130AB0DF90CF90089580EC87B987E886B9369A9D
S1130AC03699FECF24B185B130E0382BC901992382
S1130AD00CF403969595879595958795089581ECE3
S1130AE087B987E886B9369A3699FECF24B185B19D
S1130AF030E0382BC90199230CF40396959587951A
S1130B0095958795089560E070E08FE190E00E94EC
S1130B10890160E070E080E290E00E94890160E079
S1130B2070E081E290E00E94890161E070E084E17C
S1130B3090E00E94890161E070E085E190E00E940C
S1130B40890161E070E08AE090E00E94890161E03F
S1130B5070E08BE090E00E94890160E070E082E246
S1130B6090E00E94890160E070E083E290E00E94DE
S1130B70890160E070E084E290E00E94890160E015
S1130B8070E085E290E00E94890160E070E08AE113
S1130B9090E00E94890160E070E08BE190E00E94A7
S1130BA089010E9478040E9454040E945B0590937A
S1130BB07900809378002091620030916300A9014C
S1130BC04250510950937300409372008217930767
S1130BD034F061E070E08FE190E00E9449002091E0
S1130BE0780030917900809172009091730082179F
S1130BF0930734F060E070E08FE190E00E944900D8
S1130C000E946F059093750080937400209160009A
S1130C1030916100A90142505109509371004093F1
S1130C2070008217930734F061E070E080E290E096
S1130C300E944900209174003091750080917000E9
S1130C40909171008217930734F060E070E080E2C5
S1130C5090E00E94490084E190E00E94CE02019756
S1130C6049F480916200909163000197909363002E
S1130C708093620085E190E00E94CE02019749F4DE
S1130C808091620090916300019690936300809339
S1130C9062008AE090E00E94CE02019749F48091BC
S1130CA060009091610001979093610080936000CF
S1130CB08BE090E00E94CE02019749F4809160009D
S1130CC0909161000196909361008093600020915F
S1130CD06000309161004091620050916300609126
S1130CE074007091750080917800909179000E9451
S1130CF0FE045BCFBB274A3031F4992322F4BDE2D2
S1130D00909581959F4F0C948606BB27FB01552730
S1130D10AA27880F991FAA1FA41710F0A41B839554
S1130D205051B9F7A05DAA3308F0A95DA1930097CB
S1130D3079F7B111B1931192CB010C949F06DC01A8
S1130D40FC01672F71917723E1F7329704C07C91FE
S1130D506D9370836291AE17BF07C8F30895F8943A
S1050D60FFCFBF
S1130D621F001E0053454E313A0053454E323A009D
S9030000FC
